:020000040800F2
:1000000058070020E5040008850200088702000860
:100010008B0200088F020008930200080000000015
:10002000000000000000000000000000970200082F
:1000300099020008000000009B0200089D020008D1
:10004000FF040008FF040008FF040008FF04000884
:10005000FF040008FF040008FF040008FF04000874
:10006000FF040008FF040008FF040008FF04000864
:10007000FF040008FF040008FF040008FF04000854
:10008000FF040008FF040008FF040008FF04000844
:10009000FF040008FF040008FF040008FF04000834
:1000A000FF040008FF040008FF040008FF04000824
:1000B000FF040008FF040008FF040008FF04000814
:1000C000FF040008FF040008FF040008FF04000804
:1000D000FF040008111500082D160008FF04000891
:1000E000FF040008FF040008FF040008FF040008E4
:1000F000FF040008FF040008FF040008FF040008D4
:10010000FF040008FF040008FF040008FF040008C3
:10011000FF040008FF040008FF040008FF040008B3
:10012000FF040008FF040008FF040008FF040008A3
:10013000FF040008FF040008FF040008FF04000893
:10014000FF040008FF040008FF040008FF04000883
:10015000FF040008FF040008FF040008FF04000873
:10016000FF040008FF040008FF040008FF04000863
:10017000FF040008FF040008FF040008FF04000853
:10018000FF040008FF040008FF040008FF04000843
:10019000FF040008FF040008FF040008FF04000833
:1001A0000000000000000000FF04000800F002F85A
:1001B00000F041F80AA090E8000C82448344AAF1C0
:1001C0000107DA4501D100F036F8AFF2090EBAE8BE
:1001D0000F0013F0010F18BFFB1A43F0010318477B
:1001E0000417000024170000103A24BF78C878C113
:1001F000FAD8520724BF30C830C144BF04680C602D
:10020000704700000023002400250026103A28BF74
:1002100078C1FBD8520728BF30C148BF0B60704778
:10022000642901F05F82002070471FB501F054FB84
:100230001FBD10B510BD01F01DFB1146FFF7F5FF06
:1002400000F008F801F03BFB03B4FFF7F2FF03BC3A
:1002500001F0FEF800244FF4E13001F096F954204B
:1002600001F074F808E0214604A001F0FBF94FF416
:10027000FA7001F0CDF8641CF5E70000743A2564CB
:100280000D0A0000704700BFFEE700BFFEE700BF99
:10029000FEE700BFFEE770477047704770470000F9
:1002A0000CB50020019000908348006840F4803035
:1002B0008149086000BF8048006800F40030009069
:1002C0000198401C0190009818B90198B0F5A04F12
:1002D000F1D17948006800F4003010B1012000909D
:1002E00001E0002000900098012860D17248403061
:1002F000006840F080507049403108606F480068E5
:1003000040F440406D4908606B48083000686A4915
:10031000083108600846006840F40040086008465C
:10032000006840F4A05008606548091F0860081F75
:10033000006840F08070091F086000BF5E480068D8
:1003400000F000700028F9D05C48006840F480306C
:100350005A49086000BF5948406800F480300028BE
:10036000F9D05648006840F400305449086000BF96
:100370005248406800F400300028F9D040F205707F
:10038000504908604C480830006820F003004A4992
:10039000083108600846006840F00200086000BFAD
:1003A00045480830006800F00C000828F8D10CBD62
:1003B00010B54548006840F47000434908603E4865
:1003C000006840F001003C49086000203A490831CB
:1003D0000860394800683D490840374908603C4892
:1003E000091D0860081F006820F48020091F0860AC
:1003F000002031490C310860FFF752FF4FF00060D8
:1004000031498039086010BD70B5002000220223F8
:1004100000240221284D08352D6805F00C0020B17C
:10042000042806D0082834D107E02A4D2A4E35602A
:1004300033E02A4D284E35602FE01F4D2D1D2D68CD
:10044000C5F380541C4D2D1D2D6805F03F0154B19E
:10045000224DB5FBF1F5184E361D3668C6F38816E9
:1004600005FB06F209E01B4DB5FBF1F5124E361DFA
:100470003668C6F3881605FB06F20F4D2D1D2D6854
:10048000C5F301456D1C6B00B2FBF3F5124E3560F0
:1004900003E0104D104E356000BF00BF064D08351B
:1004A0002D68C5F303150E4E705D0B4D2D68C540CC
:1004B000094E356070BD00000038024000700040F9
:1004C0000C5A4007003C024088ED00E0FFFFF6FEBA
:1004D000103000240024F40000000020001BB700AE
:1004E000040000200948804709480047FEE7FEE76E
:1004F000FEE7FEE7FEE7FEE7FEE7FEE7FEE7FEE7D4
:1005000004480549054A064B70470000B10300083E
:10051000AD010008580100205807002058030020B2
:100520005803002032490143324A1160704770B5C8
:10053000002100230F22C4781CB32E4C246804F43D
:10054000E064C4F5E064C4F30721C1F10404E3B23C
:100550000A4144789C40E1B28478144021430C075E
:10056000210E254C05786155047804F01F050124FF
:10057000AC4005786D11AD0005F1E025C5F80041EE
:1005800009E0047804F01F050124AC401B4D0678F7
:10059000761145F8264070BD194A0A400243154BB2
:1005A0001B1F1A60704739B1124A121D12680243AC
:1005B000104B1B1D1A6006E00E4A121D1268824382
:1005C0000C4B1B1D1A607047042808D14FF0E02126
:1005D000096941F004014FF0E022116107E04FF09A
:1005E000E021096921F004014FF0E0221161704718
:1005F0000000FA050CED00E000E400E080E100E01E
:1006000080FFFF1F10B504469848844208D101219D
:10061000084600F087FB0021012000F083FB76E014
:100620009348844208D10121022000F07BFB002185
:10063000022000F077FB6AE08E48844208D1012155
:10064000042000F06FFB0021042000F06BFB5EE053
:100650008948844208D10121082000F063FB002171
:10066000082000F05FFB52E08448844208D1012159
:10067000102000F057FB0021102000F053FB46E053
:100680007F48844208D10121202000F04BFB00214B
:10069000202000F047FB3AE07A48844208D101214B
:1006A000402000F03FFB0021402000F03BFB2EE00B
:1006B0007548844208D10121802000F033FB0021DD
:1006C000802000F02FFB22E07048844208D10121F5
:1006D000801500F027FB0021A01500F023FB16E099
:1006E0006B48844208D10121401500F01BFB00211A
:1006F000601500F017FB0AE06648844207D101212B
:10070000001500F00FFB0021201500F00BFB10BDC1
:10071000F0B50A4600210023002400BF3DE001257A
:1007200005FA01F3156805EA03049C4234D1056813
:100730004F000326BE40B543056015794E00B54015
:100740000668354305601579012D02D01579022D13
:1007500016D185684F000326BE40B54385605579A4
:100760004E00B540866835438560456801268E4059
:10077000B5434560456896798E40B6B235434560CD
:10078000C5684F000326BE40B543C560D5794E000D
:10079000B540C6683543C560491C1029BFD3F0BDBC
:1007A0004FF6FF7101600021017141718171C171CA
:1007B000704708B54FF480320092009A0A430092C5
:1007C000009AC261C161009AC261C2690092C269A5
:1007D000009208BD0246002013690B400BB10120B6
:1007E00000E0002070470146086980B27047024669
:1007F000002053690B400BB1012000E0002070473E
:100800000146486980B27047018370474183704751
:100810000AB1018300E0418370474161704742693A
:100820004A4042617047F0B5002300244D07ED0EA9
:1008300002FA05F3CE1000F1200555F826504E07B8
:10084000F70E0F26BE40B543CF1000F1200646F844
:100850002750CE1000F1200555F8265045EA030434
:10086000CE1000F1200545F82640F0BD0000024002
:100870000004024000080240000C02400010024048
:100880000014024000180240001C024000200240F8
:100890000024024000280240F648006840F00100B1
:1008A000F44908600020F34908310860F148006805
:1008B000F1490840EF490860F048091D0860F04818
:1008C000EC4984310860ED481038091D0860E9489A
:1008D000006820F48020E74908600020E5490C31D9
:1008E0000860E4498C31086070470021E14A921C9D
:1008F000117011460870704710B5014600220023A0
:1009000000204A11012A02D1DA4C236808E0022AA9
:1009100003D1D84C7034236802E0D64C7434236879
:1009200001F01F02012494401C400CB1012000E0A2
:10093000002010BD38B5002000900024002500BF25
:100940003120FFF7D9FF05460098401C0090009821
:10095000B0F5A04F01D0002DF2D03120FFF7CCFF31
:1009600008B1012400E00024204638BD01460020E3
:10097000C04A106820F0F80040EAC10010607047DB
:10098000C049086070470021BA4A70321170117076
:10099000012802D004280AD104E00121B54A7032AE
:1009A000117005E00521B34A7032117000E000BFFC
:1009B00000BF7047B4490860704770B5049C41EAB5
:1009C00082150126C6EB530645EA0645054345EA6E
:1009D0000465A84E361D356070BDAA49086670478B
:1009E00010B5830143EA016343EA0273A14C8434E6
:1009F000236010BDA3498866704710B5830143EAA0
:100A0000016343EA02739B4C8834236010BD9D4907
:100A1000086770479B49C864704702460020954BA1
:100A20000833186820F0EC6042EA01031843914B48
:100A3000083318607047024600208E4B0833186850
:100A400020F0784042EA010318438A4B08331860CB
:100A5000704701460020874A0832106820F00300E2
:100A600008431060704783480830006800F00C00AD
:100A70007047014600207F4A0832106820F0F000DD
:100A8000084310607047014600207A4A0832106817
:100A900020F4E05008431060704701460020754A7A
:100AA0000832106820F4604040EAC10010607047CE
:100AB000F0B50021002200240225002602236D4FFC
:100AC00008373F6807F00C0121B1042905D0082937
:100AD00037D105E06D4F076036E06D4F076033E0BA
:100AE000644F3F1D3F68C7F38056624F3F1D3F680C
:100AF00007F03F036EB1664FB7FBF3F7DFF874C141
:100B00000CF1040CDCF800C0CCF3881C07FB0CF4DF
:100B10000CE05E4FB7FBF3F7DFF858C10CF1040CA3
:100B2000DCF800C0CCF3881C07FB0CF4514F3F1DD0
:100B30003F68C7F301477F1C7D00B4FBF5F70760F2
:100B400002E0524F076000BF00BF4A4F08373F68BE
:100B500007F0F00109094F4F7A5C0768D7404760FA
:100B6000444F08373F6807F4E051890A494F7A5CDF
:100B70004768D74087603F4F08373F6807F46041B8
:100B8000490B444F7A5C4768D740C760F0BD0021ED
:100B900000F44072B2F5407F0AD1364A083211683B
:100BA00021F4F8113C4A02401143324A08321160E4
:100BB000304A70321268C0F30B031A432D4B703366
:100BC0001A60704730494439086070472E494039EF
:100BD0000860704731490860704701460020254A87
:100BE0008C32106820F01F004A1E1043214A8C32BC
:100BF00010607047014600201E4A8C32106820F4B5
:100C0000F8504A1E40EA02201A4A8C32106070479F
:100C100001460020174A8C32106820F44010084327
:100C20001060704701460020124A8C32106820F490
:100C30004000084310607047014600200D4A8C3286
:100C4000106820F440300843106070471449086071
:100C5000704739B1074A303212680243054B3033CE
:100C60001A6006E0034A303212688243014B303387
:100C70001A60704700380240FFFFF6EA1030002487
:100C80000030002000004742800E47420024F4005C
:100C9000001BB70014000020FFFCFF0F5C0147425F
:100CA000E011474229B1934A12680243914B1A60FE
:100CB00004E0904A126882438E4B1A60704739B143
:100CC0008C4A121D126802438A4B1B1D1A6006E0F3
:100CD000884A121D12688243864B1B1D1A6070479A
:100CE00039B1844A0C3212680243824B0C331A60C9
:100CF00006E0804A0C32126882437E4B0C331A6045
:100D0000704739B17B4A103212680243794B103375
:100D10001A6006E0774A103212688243754B10332E
:100D20001A60704739B1734A243A12680243714B12
:100D3000243B1A6006E06F4A243A126882436D4BE6
:100D4000243B1A60704739B16A4A203A126802435C
:100D5000684B203B1A6006E0664A203A12688243DC
:100D6000644B203B1A60704739B1624A1C3A1268E2
:100D70000243604B1C3B1A6006E05E4A1C3A126854
:100D800082435C4B1C3B1A60704739B1594A143A94
:100D900012680243574B143B1A6006E0554A143A56
:100DA00012688243534B143B1A60704739B1514A61
:100DB000103A126802434F4B103B1A6006E04D4A4E
:100DC000103A126882434B4B103B1A60704739B19E
:100DD000484A1C3212680243464B1C331A6006E034
:100DE000444A1C3212688243424B1C331A607047DB
:100DF00039B1404A2032126802433E4B20331A6018
:100E000006E03C4A2032126882433A4B20331A6093
:100E1000704739B1374A243212680243354B2433C4
:100E20001A6006E0334A243212688243314B24337D
:100E30001A60704739B12F4A2C32126802432D4B89
:100E40002C331A6006E02B4A2C3212688243294B5D
:100E50002C331A60704739B1264A30321268024387
:100E6000244B30331A6006E0224A30321268824343
:100E7000204B30331A607047012808D11D493C319E
:100E8000096841F008011B4A3C32116007E019492A
:100E90003C31096821F00801164A3C321160704764
:100EA00039B1144A273A12780243124B273B1A7081
:100EB00006E0104A273A127882430E4B273B1A70FD
:100EC00070470C484030006840F08070094940315C
:100ED0000860704701460020064A283A12680A4016
:100EE0000AB1012000E0002070470249263908704D
:100EF000704700003438024010B50446FA48844276
:100F000008D101211020FFF751FF00211020FFF729
:100F10004DFF57E0F548844209D101214804FFF70D
:100F200034FF00214FF40030FFF72FFF4AE0F04874
:100F3000844209D101218804FFF727FF00214FF4E3
:100F40008020FFF722FF3DE0EA48844209D10121D9
:100F5000C804FFF71AFF00214FF40020FFF715FF28
:100F600030E0E548844209D101210805FFF70DFF73
:100F700000214FF48010FFF708FF23E0DF48844290
:100F800008D101212020FFF711FF00212020FFF7C9
:100F90000DFF17E0DA48844209D101218807FFF7E5
:100FA000F4FE00214FF08040FFF7EFFE0AE0D54845
:100FB000844207D101214005FFF7E7FE00216005CB
:100FC000FFF7E3FE10BD2DE9FF4705460E4600245E
:100FD000A14600BFA046B08900B100BF2C8A24F40E
:100FE0004054F08804432C82AC8941F20C60844365
:100FF000B08831890843718908430443AC81AC8AC5
:1010000024F44074B0890443AC826846FFF750FD75
:10101000B548854202D0B948854202D1DDF80C902E
:1010200001E0DDF80890A88900F4004040B109EB28
:10103000C90000EB091031684900B0FBF1F707E087
:1010400009EBC90000EB091031688900B0FBF1F72A
:101050006420B7FBF0F004012009642101FB107843
:10106000A88900F4004040B1322000EBC800B0FB7A
:10107000F1F000F00700044308E0322000EB081014
:101080006421B0FBF1F000F00F0004432C81BDE8B7
:10109000FF874FF41651016000218180C1800181DA
:1010A0000C21418100218181704710B5024600204A
:1010B000108A20F470600B884C8823438C8823436B
:1010C000CC8823431843108210BD00210180418049
:1010D0008180C180704721B1828942F400528281AF
:1010E00004E082894DF6FF731A4082817047028BBB
:1010F00002F47F420283028B0A430283704721B1CC
:10110000828942F40042828103E08289C2F30E02A6
:101110008281704721B1828A42F40062828204E0B7
:10112000828A4FF2FF731A4082827047C1F308022D
:101130008280704701468888C0F308007047028AA1
:101140004FF6F0731A400282028A0A430282704705
:1011500021B1828942F00202828104E082894FF645
:10116000FD731A408281704782894FF2FF731A40E3
:10117000828182890A4382817047028A4FF6DF7337
:101180001A400282028A0A430282704721B1028A0F
:1011900042F48042028204E0028A4BF6FF731A4056
:1011A00002827047818941F001018181704721B13C
:1011B000828A42F00802828204E0828A4FF6F77344
:1011C0001A4082827047028BD2B20283028B42EABB
:1011D00001220283704721B1828A42F0200282827A
:1011E00004E0828A4FF6DF731A408282704721B191
:1011F000828A42F01002828204E0828A4FF6EF7304
:101200001A4082827047828A4FF6FB731A408282AC
:10121000828A0A438282704721B1828A42F00202A6
:10122000828204E0828A4FF6FD731A408282704700
:101230001AB1838A0B43838202E0838A8B438382C1
:101240007047F0B50346002400260025002040F634
:101250006A17B94200D100BF1846C1F3421401F029
:101260001F06012707FA06F5012C01D10C3004E016
:10127000022C01D1103000E014301AB107682F435E
:10128000076002E00768AF430760F0BD0246002038
:10129000B1F5007F00D100BF13880B400BB10120D6
:1012A00000E00020704701F40072B2F5007F00D129
:1012B00000BFCA430280704770B502460024002375
:1012C0000025002040F66A16B14200D100BFC1F3EC
:1012D000421501F01F03012606FA03F3012D13D175
:1012E0009689334017E000000010014000440040A0
:1012F00000480040004C00400050004000140140F5
:1013000000780040007C0040022D02D1168A334054
:1013100001E0968A33400C12012606FA04F416887E
:10132000344013B10CB1012000E0002070BD10B5B5
:101330000022002340F66A14A14200D100BF0A1225
:1013400001249440A3B2DC43048010BD10B50446D0
:101350006FF00400FFF738F9E11704EB5171C1F3A6
:10136000C701394A11701046007800EB4001C1EB0B
:10137000C0104FF6FF7101EAC0003449088010BD6B
:101380000146314A12784A434FF0E0235A61002265
:101390009A611A46126942F001021A6100BF4FF0C9
:1013A000E022106900F001021AB100F48032002A34
:1013B000F5D04FF0E022126922F001024FF0E02355
:1013C0001A6100229A6170470146204A12884A43F6
:1013D0004FF0E0235A6100229A611A46126942F0E6
:1013E00001021A6100BF4FF0E022106900F0010213
:1013F0001AB100F48032002AF5D04FF0E0221269D1
:1014000022F001024FF0E0231A6100229A61704736
:1014100070B504464FF4077094FBF0F0C6B24FF479
:10142000077094FBF0F100FB114085B205E04FF42A
:101430000770FFF7C9FF701EC6B2002EF7D115B1B5
:101440002846FFF7C1FF70BD2400002026000020C1
:1014500000BF704700BF7C4A128802F04002002A99
:10146000F9D0C2B2784B1B1D1A80704710B588B0F6
:10147000044601210846FFF7ECFB01211020FFF78D
:1014800040FC072209217148FFF7CDF907220A2104
:101490006E48FFF7C8F94FF4C060069002208DF83F
:1014A0001C008DF81D0000208DF81E0001208DF815
:1014B0001F0006A96548FFF72BF902940020ADF83C
:1014C0000C00ADF80E00ADF81000ADF814000C20C3
:1014D000ADF8120002A95E48FFF775FD01215C48D6
:1014E000FFF7F9FD012240F225515948FFF7A9FE07
:1014F00025208DF8040003208DF805008DF80600E6
:1015000001208DF8070001A8FFF711F808B010BD01
:1015100010B540F225514E48FFF7CEFE10B34C48AF
:10152000FFF708FEC4B24B48008800F40040C8B979
:101530004848008800F4804060B10A2C03D00020A5
:101540004449088020E04348008840F40040414975
:10155000088019E00D2C06D13E48008840F48040F8
:101560003C49088010E03B480088C0F30D003A4930
:101570000C5438480088401C3649088008460088CA
:10158000C72801DD0020088010BD10B588B00446D2
:1015900001210820FFF75DFB01214804FFF7A0FBB4
:1015A000072205212D48FFF73EF9072206212B4887
:1015B000FFF739F96020069002208DF81C008DF8A5
:1015C0001D0000208DF81E0001208DF81F0006A9C7
:1015D0002248FFF79DF802940020ADF80C00ADF80A
:1015E0000E00ADF81000ADF814000C20ADF812009C
:1015F00002A91548FFF7E7FC01211348FFF76BFD2F
:10160000012240F225511048FFF71BFE26208DF8DD
:10161000040003208DF805008DF8060001208DF8E8
:10162000070001A8FEF783FF08B010BD10B540F217
:1016300025510548FFF740FE20B140F225510248F0
:10164000FFF775FE10BD000000440040000002409E
:10165000001001402C00002030000020000C02404F
:10166000704700000FB4044910B503AA029800F0B7
:10167000D3F810BC5DF814FB280000202DE9F041E0
:101680000E460446002020622046E168884730B3B9
:10169000252805D0D4E901219047206A401CF2E7B3
:1016A000E168204600278847050018D0A5F14100D1
:1016B000192802D820354FF40067324629462046C3
:1016C0002760FEF7ADFD40B1012804D0F61D26F0DD
:1016D00007060836D8E7361DD6E72846DAE7206A37
:1016E000BDE8F0812DE9F041064600241068752917
:1016F000314616A510D0AFF30080002802DA404230
:1017000013A507E031688A0701D512A502E0490751
:1017100004D511A5012401E0AFF3008000210A22C5
:1017200006F1240709E0B0FBF2FCB0FBF2F302FB88
:101730001C00303078541846491C0028F3D1234649
:101740002A463046BDE8F04100F00CB80000000029
:101750002D0000002B0000002000000070477047A3
:10176000704770472DE9F0470D469946924604466A
:1017700000F124080168880604D5E06921F0100111
:10178000216000E00120A84201DD471B00E00027A6
:10179000A1697A1902EB0900081AA0612078C00635
:1017A00002D42046AFF30080002608E0D4E90121EE
:1017B0001AF806009047206A401C761C20624E45AD
:1017C000F4DB2078C0060AD52046AFF3008006E09F
:1017D000D4E9012130209047206A401C2062381E45
:1017E000A7F10107F4DC07E0D4E9012118F80500AE
:1017F0009047206A401C2062281EA5F10105F3DCF9
:101800002046AFF300802078000602D50220BDE814
:10181000F0870120FBE70000074B70B50D467B44C5
:1018200000F011F80446284600F020F810B14FF0FF
:10183000FF3070BD204670BD33FCFFFF01694A1CBC
:1018400002610878704700B58FB0CDE90131002101
:10185000059105497944CDE9031011466846FFF723
:101860000DFF0FB000BD0000E5FFFFFF007B00F0A3
:1018700080007047754600F02BF8AE4605006946BB
:10188000534620F00700854618B020B5FEF738FE15
:10189000BDE820404FF000064FF000074FF0000871
:1018A0004FF0000B21F00701AC46ACE8C009ACE8F2
:1018B000C009ACE8C009ACE8C0098D46704710B556
:1018C0000446AFF300802046BDE81040FEF7BCBCE4
:1018D00000487047F80000204FF04070E1EE100A19
:1018E00070470000041900080000002030000000CC
:1018F000E801000834190008300000202807000023
:10190000040200080095BA0A000000000000000070
:101910000102030406070809000000000102030495
:10192000010203040607080900000000000000008F
:0419300000000000B3
:04000005080001AD41
:00000001FF
