:020000040800F2
:10000000183401200D030008AD060008F3050008B0
:10001000A90600085905000869080008000000004A
:100020000000000000000000000000004D02000879
:100030005D05000800000000A9020008F1070008A3
:1000400027030008270300082703000827030008E8
:1000500027030008270300082703000827030008D8
:1000600027030008270300082703000827030008C8
:1000700027030008270300082703000827030008B8
:1000800027030008270300082703000827030008A8
:100090002703000827030008270300082703000898
:1000A0002703000827030008270300082703000888
:1000B0002703000827030008270300082703000878
:1000C0002703000827030008270300082703000868
:1000D0002703000827030008270300082703000858
:1000E0002703000827030008270300082703000848
:1000F0002703000827030008270300082703000838
:100100002703000827030008270300082703000827
:100110002703000827030008270300082703000817
:100120002703000827030008270300082703000807
:1001300027030008270300082703000827030008F7
:1001400027030008270300082703000827030008E7
:1001500027030008270300082703000827030008D7
:1001600027030008270300082703000827030008C7
:1001700027030008270300082703000827030008B7
:1001800027030008270300082703000827030008A7
:100190002703000827030008270300082703000897
:1001A00000000000000000002703000800F002F833
:1001B00000F03CF80AA090E8000C82448344AAF1C5
:1001C0000107DA4501D100F031F8AFF2090EBAE8C3
:1001D0000F0013F0010F18BFFB1A43F0010318477B
:1001E0004C2300006C230000103A24BF78C878C16B
:1001F000FAD8520724BF30C830C144BF04680C602D
:10020000704700000023002400250026103A28BF74
:1002100078C1FBD8520728BF30C148BF0B60704778
:100220001FB502F07DF91FBD10B510BD00F05EF9DD
:100230001146FFF7F5FF00F03DFB00F07CF903B439
:10024000FFF7F2FF03BC00F081F900002C4B1968A6
:100250000868B0E8F04F80F30988BFF36F8F4FF064
:10026000000080F311887047000000000848006813
:10027000006880F308884FF0000080F3148862B6AD
:1002800061B6BFF34F8FBFF36F8F00DF00BF00BFBA
:1002900008ED00E0DFF80C00016841F47001016036
:1002A000704700BF88ED00E0EFF30980BFF36F8F68
:1002B000134B1A681EF0100F08BF20ED108A20E9BA
:1002C000F04F106009B44FF0500080F31188BFF375
:1002D0004F8FBFF36F8F01F0C1FA4FF0000080F332
:1002E000118809BC19680868B0E8F04F1EF0100FBB
:1002F00008BFB0EC108A80F30988BFF36F8F704796
:1003000014000020EFF30580704700000948804783
:1003100009480047FEE7FEE7FEE7FEE7FEE7FEE7E7
:10032000FEE7FEE7FEE7FEE704480549054A064BFF
:100330007047000001080008AD010008182E0120D8
:10034000183401201830012018300120032A40F20F
:10035000308010F0030C00F0158011F8013BBCF167
:10036000020F624498BF11F801CB00F8013B38BF7F
:1003700011F8013BA2F1040298BF00F801CB38BF8D
:1003800000F8013B11F0030300F05780083AC0F079
:10039000088051F8043B083A51F804CBA0E8081053
:1003A000F5E7121D5CBF51F8043B40F8043BAFF386
:1003B0000080D20724BF11F8013B11F801CB48BFE0
:1003C00011F8012B24BF00F8013B00F801CB48BF16
:1003D00000F8012B704702F0FF0343EA032242EAD0
:1003E000024200F05EB84FF0000200B5134694469A
:1003F0009646203922BFA0E80C50A0E80C50B1F17D
:100400002001BFF4F7AF090728BFA0E80C5048BF90
:100410000CC05DF804EB890028BF40F8042B08BF2E
:10042000704748BF20F8022B11F0804F18BF00F82A
:10043000012B704770477047704710B5203AC0F0E5
:100440000B80B1E81850203AA0E81850B1E81850D5
:10045000A0E81850BFF4F5AF5FEA027C24BFB1E812
:100460001850A0E8185044BF18C918C0BDE8104083
:100470005FEA827C24BF51F8043B40F8043B08BF8C
:100480007047D20728BF31F8023B48BF11F8012B53
:1004900028BF20F8023B48BF00F8012B70474FF0FF
:1004A00000020429C0F0128010F0030C3FF49DAF4D
:1004B000CCF1040CBCF1020F18BF00F8012BA8BF4F
:1004C00020F8022BA1EB0C01FFF78FBF5FEAC17C84
:1004D00024BF00F8012B00F8012B48BF00F8012BC6
:1004E0007047000000487047B82D01207546FFF79F
:1004F000F9FFAE4605006946534620F007008546E1
:1005000018B020B5FFF710FFBDE820404FF00006FF
:100510004FF000074FF000084FF0000B21F00701EB
:10052000AC46ACE8C009ACE8C009ACE8C009ACE82E
:10053000C0098D46704710B50446AFF300802046D1
:10054000BDE81040FFF77BBE70470000014918204E
:10055000ABBEFEE72600020000BFFEE77047F0B525
:100560000A4600210023002400BF3DE0012505FAD2
:1005700001F3156805EA03049C4234D105684F0075
:100580000326BE40B543056015794E00B5400668A8
:10059000354305601579012D02D01579022D16D14C
:1005A00085684F000326BE40B543856055794E00EF
:1005B000B540866835438560456801268E40B54361
:1005C0004560456896798E40B6B235434560C5684A
:1005D0004F000326BE40B543C560D5794E00B540F7
:1005E000C6683543C560491C1029BFD3F0BD0183DF
:1005F000704700BFFEE700001CB50121702000F02D
:1006000057F84FF48040009001208DF8040000203E
:100610008DF8060003208DF8050002208DF80700F4
:1006200069461E48FFF79BFF4FF400600090694643
:100630001B48FFF794FF4FF4FF700090694619487C
:10064000FFF78DFF4FF480411448FFF7D0FF4FF4C0
:1006500000611348FFF7CBFF02211248FFF7C7FFE5
:1006600004211048FFF7C3FF08210E48FFF7BFFF22
:1006700010210C48FFF7BBFF20210A48FFF7B7FF06
:1006800040210848FFF7B3FF80210648FFF7AFFF7E
:100690004FF480710348FFF7AAFF1CBD001402400D
:1006A000001002400018024000BFFEE77047000043
:1006B00029B1064A12680243044B1A6004E0034A57
:1006C00012688243014B1A607047000030380240C4
:1006D0000CB50020019000904148006840F4803043
:1006E0003F49086000BF3E48006800F400300090B9
:1006F0000198401C0190009818B90198B0F5A04FDE
:10070000F1D13748006800F4003010B101200090AA
:1007100001E0002000900098012860D1304840306E
:10072000006840F080502E49403108602D48006834
:1007300040F440402B4908602948083000682849A7
:10074000083108600846006840F400400860084628
:10075000006840F4A05008602348091F0860081F83
:10076000006840F08070091F086000BF1C480068E6
:1007700000F000700028F9D01A48006840F480307A
:100780001849086000BF1748406800F4803000280E
:10079000F9D01448006840F400301249086000BFE6
:1007A0001048406800F400300028F9D040F205708D
:1007B0000E4908600A480830006820F00300084924
:1007C000083108600846006840F00200086000BF79
:1007D00003480830006800F00C000828F8D10CBD70
:1007E00000380240007000400C5A4007003C0240B4
:1007F00010B501F03BFC012801D001F029F910BD32
:1008000010B51548006840F470001349086013489B
:10081000006840F001001149086000200F490831CC
:1008200008600E4800680E4908400C4908600D48F1
:10083000091D0860081F006820F48020091F086057
:10084000002006490C310860FFF742FF4FF00060BE
:1008500001498039086010BD88ED00E00038024091
:10086000FFFFF6FE1030002400BFFEE709E0054858
:100870000068C0430449C1F884024FF4FA7000F0E4
:100880001FFFF4E784024342000043420CE00020D3
:1008900006490860C82000F013FF01200449C1F890
:1008A0008802C82000F00CFFF1E7000088024342F4
:1008B000000043421CB5FFF79FFE002001210346C4
:1008C0004FF47A72CDE9001009A10B4801F09EFBAC
:1008D0000020022103464FF47A72CDE9001007A1EF
:1008E000084801F093FB00F067FF00BFFEE700003F
:1008F0005461736B203100006D0800085461736B04
:10090000203200008D0800082DE9F04105460E4612
:100910001C4807681C480068001D00F069FD50B9BC
:100920001948006890F82C10012088401749096880
:10093000814316480160681C38B936B11248016815
:10094000091D134800F092FD1AE07C190E4800685A
:100950004460BC4207D20C480168091D0D4800687C
:1009600000F06AFD0CE008480168091D0A480068AB
:1009700000F062FD09480068844201D20748046023
:10098000BDE8F08128000020140000202C00002089
:100990007C0100201C0000201800002044000020E2
:1009A00010B5044600F06EFD24480068401C234941
:1009B00008602348006840B9214804600846006880
:1009C00001280DD100F0DEF90AE01E48006838B9B0
:1009D0001B480068C06AE16A884201D81848046070
:1009E00019480068401C18490860084600682064DF
:1009F00094F82C10012088401449096808431349D1
:100A00000860E16A01EB8101114A02EB8100211DBE
:100A100000F02CFD00F060FD0A48006868B108484D
:100A20000068C06AE16A884207D24FF080500949E5
:100A30000860BFF34F8FBFF36F8F10BD24000020FD
:100A40001400002030000020400000202C00002076
:100A5000C800002004ED00E010B500F013FD1048C0
:100A60000068D0B90F4800F0D7FC0F4800F0D4FC64
:100A70000C480E4908600C480D49086000220C2102
:100A80000A2000F0FFFF064908600846006820B110
:100A900008A10348006800F0D7FD00F01DFD10BD5F
:100AA0005800002090010020A401002050000020E8
:100AB00054000020546D72510000000010B516E083
:100AC00000F0E0FC0C48C068C468201D00F090FCF9
:100AD0000A480068401E0949086009480068401E2D
:100AE0000749086000F0F8FC204600F05FF8044871
:100AF00000680028E4D110BD680100202400002017
:100B00002000002070B504460D46206C70B1216CA9
:100B1000E0680144E160D4E90210884201D3216811
:100B2000E1602846226CE168FFF710FC70BD2DE9FA
:100B3000F04104460F4615464FF00008A66B206CA6
:100B400048B9206800282CD1A06801F049FB8046F4
:100B50000020A06025E07DB93946226C6068FFF76F
:100B6000F5FB216C606808446060D4E901018842AB
:100B700017D32068606014E03946226CE068FFF704
:100B8000E5FB216CE068411AE1602168E068884279
:100B900003D2216CA068411AE160022D01D106B197
:100BA000761E701CA0634046BDE8F08110B5044677
:100BB000206B00F0AFFC204600F0ACFC10BD000044
:100BC0000146084A126812680AB9012200E00022B0
:100BD0000A600A6822B9034A1268D268106800E005
:100BE000002070475000002030B54FF4963317486E
:100BF00000F007042CB1C01D20F00700134C041BAB
:100C00001B1B0246124C22600024114D6C60D01850
:100C1000083820F007000F4C206000240D4D2D688F
:100C20006C600C4D2D682C601146441A4C60094CC8
:100C300024680C60084D4C682C60084D4C682C6092
:100C40004FF00044064D2C6030BD0000B80100207C
:100C50007000002078000020800000207C00002030
:100C60008400002000BFFFF729FF06480068012824
:100C7000F9D94FF0805004490860BFF34F8FBFF39C
:100C80006F8FF0E7C800002004ED00E02DE9F0418F
:100C900006460D4617469846069C0DB9246000E0AE
:100CA0002760E66325640121204600F019FF84F8DF
:100CB0004C80BDE8F0812DE9F05F82460E469046FB
:100CC0009B460A9F0C9C56B900BF502080F31188A8
:100CD000BFF34F8FBFF36F8F00BF00BFFEE74FEA38
:100CE0008801A522206BFFF776FBA8F10100216B9C
:100CF00001EB800929F0070909F0070008B9012074
:100D000000E0002050B900BF502080F31188BFF3ED
:100D10004F8FBFF36F8F00BF00BFFEE7002507E0D6
:100D2000715D04F134004155705D00B902E06D1C45
:100D30000A2DF5D300BF00213D200155052F00D31A
:100D40000427E762A7640020E064201D00F071FB27
:100D500004F1180000F06DFB2461C7F10500A061EB
:100D600064620020206584F854005A465146484683
:100D700000F028FB20600B9808B10B980460BDE8D8
:100D8000F09F000010B5002407E004EB84010F4A37
:100D900002EB810000F040FB641C052CF5D30C48ED
:100DA00000F03AFB0B4800F037FB0B4800F034FB37
:100DB0000A4800F031FB0A4800F02EFB04480949BC
:100DC000086004480849086010BD0000C800002001
:100DD0002C01002040010020540100206801002067
:100DE0007C010020180000201C00002010B50146E6
:100DF000164800E0006803688B42FBD30246436854
:100E000013448B4204D143684C6823444360014639
:100E10000A464B6813440468A34211D10C4C036882
:100E20002468A34208D04B680468646823444B607C
:100E300003681B680B6005E0054B1B680B6001E055
:100E400003680B60884200D0016010BD7000002074
:100E5000780000202DE9F04104460D4616461F4655
:100E60004FF0000865602461B5420CD8F01BA16901
:100E7000884202D34FF0010811E0211D09480068A3
:100E800000F0DAFA0BE0BE4204D2BD4202D34FF0CA
:100E9000010804E0211D0448006800F0CDFA404636
:100EA000BDE8F081540000205000002070B50546D8
:100EB00000F0E8FAA86B08B9012400E0002400F073
:100EC0000BFB204670BD70B5054600F0DBFAA86B41
:100ED000E96B884201D1012400E0002400F0FCFA13
:100EE000204670BDF8B505460F4616480068C06834
:100EF000C468201D00F07CFAE06901281DD1A069BA
:100F000041192B463A462046FFF7A4FFA8B100201E
:100F100003462A4601460090204601F0BFFA0646E5
:100F200056B900BF502080F31188BFF34F8FBFF335
:100F30006F8F00BF00BFFEE700BF2046616A884791
:100F4000F8BD00005000002070B586B06AE003983C
:100F5000002867DB059C606908B9012000E00020DB
:100F600010B9201D00F044FA02A800F0BBF80546B5
:100F700003980A2854D2DFE800F009050731334FFF
:100F80000608323400BF00BF00BF00BF0498A2694A
:100F9000811803462A462046FFF75CFFE8B1204649
:100FA000616A8847E069012817D100200090049801
:100FB000A169421800231946204601F06FFA06463F
:100FC00056B900BF502080F31188BFF34F8FBFF395
:100FD0006F8F00BF00BFFEE700BF22E000BF20E030
:100FE00000BF0498A061A06908B1012000E00020C2
:100FF00050B900BF502080F31188BFF34F8FBFF36B
:101000006F8F00BF00BFFEE7A06941192B462A463B
:101010002046FFF71FFF04E0204600F07BFA00E0C7
:1010200000BF00BF002203A90348006800F0F4FEDF
:1010300000288CD106B070BD58000020F8B50546D8
:101040000C4600F003FC684600F04CF80646009899
:1010500020BB44B9B54206D801F072F931462846A2
:10106000FFF740FF1CE03CB10E480068006808B97B
:10107000012000E000200446A91B22460A4800681F
:1010800000F0F8FA01F05CF950B94FF080500749D0
:101090000860BFF34F8FBFF36F8F01E001F050F98D
:1010A000F8BD0000540000205800002004ED00E0CE
:1010B0000A490968096809B9012100E0002121B144
:1010C0004FF0FF31064A116006E004490968C9681B
:1010D000C868034A4168116070470000180000208A
:1010E0004400002070B5044600F0D0FF05460748D4
:1010F0000068854204D200F00BF80120206001E076
:101100000020206001480560284670BD6000002076
:101110002DE9F84332E024480068C0680568224899
:101120000068C068C468201D00F062F92046616A4A
:101130008847E069012821D1A0694619AE4207D944
:1011400066602461211D1848006800F075F915E0FB
:10115000002003462A4601460090204601F09EF9F1
:10116000074657B900BF502080F31188BFF34F8F57
:10117000BFF36F8F00BF00BFFEE700BF0A480068E3
:10118000006808B9012000E000200028C3D006480C
:10119000D0F8008005480068034908600348C0F89B
:1011A0000080BDE8F88300005000002054000020BB
:1011B0000E480068401C08B9012000E0002050B92A
:1011C00000BF502080F31188BFF34F8FBFF36F8FA4
:1011D00000BF00BFFEE700BF502080F31188BFF3BF
:1011E0004F8FBFF36F8F00BF00BFFEE7640000208A
:1011F00008B500BF6846FFF7E3FC044620460099A7
:10120000FFF71CFFFFF7A0FEF4E770B5044600F0FF
:1012100039F994F9455010E0606A08B9012000E0FE
:10122000002038B904F1240001F03EF818B100F0B4
:1012300081FA00E003E0681E45B2002DECDC00BF3F
:10124000FF2084F8450000F047F900F01BF994F9FD
:10125000445010E0206908B9012000E0002048B99E
:1012600004F1100001F020F808B100F063FA681EE4
:1012700045B200E001E0002DECDC00BFFF2084F867
:10128000440000F029F970BD2DE9F04104464FF00B
:10129000000800F0DBFA4648006808B9FFF7A4FC34
:1012A00044480068204000286BD1D4B1083404F0D1
:1012B0000700B0B104F00700C0F10800044404F0D6
:1012C000070008B9012000E0002050B900BF5020FD
:1012D00080F31188BFF34F8FBFF36F8F00BF00BF44
:1012E000FEE7002C4DD034480068844249D8334E84
:1012F0003046056801E02E462D686868A04202D29B
:1013000028680028F7D12A480068854239D030681B
:1013100000F10808286830606868001B102819D997
:101320002F1907F0070008B9012000E0002050B98C
:1013300000BF502080F31188BFF34F8FBFF36F8F32
:1013400000BF00BFFEE76868001B78606C6038462D
:10135000FFF74CFD184968680968081A16490860C3
:101360000846006816490968884203D21248006896
:10137000134908600F4968680968084368600020DD
:10138000286000F0DDFF08F0070008B9012000E048
:10139000002050B900BF502080F31188BFF34F8F59
:1013A000BFF36F8F00BF00BFFEE74046BDE8F0818E
:1013B00078000020840000207C00002070000020C5
:1013C00080000020001F4FF080730360001F21F099
:1013D00001030360001F054B036014380260001F07
:1013E0006FF002030360203870470000B11100085D
:1013F00001460A69D1E901309860D1E901035860DA
:101400005068884201D188685060002008611068E7
:10141000401E10601068704700F1080141604FF0F5
:10142000FF31816000F10801C160016100210160AC
:10143000704700210161704710B502460B685C1CC3
:101440000CB9106907E002F1080000E04068446848
:1014500024689C42FAD944684C604C68A16088605A
:1014600041600A611468641C146010BD42684A60DF
:1014700093688B60936859609160086103685B1C96
:101480000360704700BF502080F31188BFF34F8F77
:10149000BFF36F8F00BF0E480068401C0C49086006
:1014A00008460068012812D10A480068C0B208B98D
:1014B000012000E0002050B900BF502080F31188C7
:1014C000BFF34F8FBFF36F8F00BF00BFFEE77047C2
:1014D0006400002004ED00E00D48006850B900BF32
:1014E000502080F31188BFF34F8FBFF36F8F00BF81
:1014F00000BFFEE706480068401E05490860084630
:10150000006820B9002080F3118800BF00BF704739
:101510006400002070B506463546002E3FD0083DD9
:101520002C461F4960680968084008B1012000E0A6
:10153000002050B900BF502080F31188BFF34F8FB7
:10154000BFF36F8F00BF00BFFEE7206808B901201E
:1015500000E0002050B900BF502080F31188BFF395
:101560004F8FBFF36F8F00BF00BFFEE70C4960686D
:101570000968084098B1206888B909496068096815
:101580008843606000F062F90649606809680844B1
:10159000044908602046FFF729FC00F0D1FE70BD29
:1015A000840000207C00002000204FF0E021086132
:1015B0008861064800684FF47A71B0FBF1F0401E74
:1015C0004FF0E021486107200861704700000020CB
:1015D00070B5FEF797FE0446102C16D304F1E020F8
:1015E00090F8F05315480078854201DB012000E0B7
:1015F000002050B900BF502080F31188BFF34F8FF7
:10160000BFF36F8F00BF00BFFEE70D48006800F416
:10161000E0600C490968884201D8012000E0002000
:1016200050B900BF502080F31188BFF34F8FBFF334
:101630006F8F00BF00BFFEE770BD00006800002094
:101640000CED00E06C000020024600200BE0084B8F
:1016500053F8303033B9064B43F8301003EBC00376
:101660005A6002E0401C0828F1D300BF7047000018
:10167000880000202DE9F04105460E4617462C460D
:10168000FFF700FF94F94400401C10B9002084F8D3
:10169000440094F94500401C10B9002084F845002E
:1016A000FFF71AFFA06B28B93A46314604F124002F
:1016B00000F062F82046FFF7A8FDBDE8F0810000C9
:1016C00070B504460025D4B11248006808B901205D
:1016D00000E0002050B900BF502080F31188BFF314
:1016E0004F8FBFF36F8F00BF00BFFEE700F0AEF873
:1016F00000212046FFF708F900F022FE05463DB91B
:101700004FF0805004490860BFF34F8FBFF36F8FD5
:1017100070BD00004C00002004ED00E003490968A2
:101720000160034909684160704700003C000020E7
:10173000280000200120014908607047380000207F
:1017400070B504460D4654B900BF502080F311888F
:10175000BFF34F8FBFF36F8F00BF00BFFEE7054899
:10176000016818312046FFF767FE01212846FFF780
:10177000CBF870BD1400002070B505460E46144627
:1017800055B900BF502080F31188BFF34F8FBFF3CE
:101790006F8F00BF00BFFEE706480168183128467A
:1017A000FFF764FE0CB14FF0FF3621463046FFF7DD
:1017B000ABF870BD140000201CB51D4800210B467D
:1017C0008222CDE900101BA11C4800F01FFC04463A
:1017D000012C02D100F036FE0446012C15D100BFC9
:1017E000502080F31188BFF34F8FBFF36F8F00BF7E
:1017F0004FF0FF30124908600120124908600020B4
:101800001149086000F070F810E0601C08B1012078
:1018100000E0002050B900BF502080F31188BFF3D2
:101820004F8FBFF36F8F00BF00BFFEE71CBD0000EE
:101830004800002049444C4500000000650C0008A9
:1018400044000020300000202800002002480068EA
:10185000401C0149086070474C0000201D4800688A
:1018600018B101201C49086032E000201A490860C4
:101870001A480068B0FA80F0C0F11F0101EB810046
:10188000174A52F8200008B1012000E0002050B9AA
:1018900000BF502080F31188BFF34F8FBFF36F8FCD
:1018A00000BF00BFFEE701EB81020D4B03EB82009E
:1018B00042685268426000F108024368934202D1D4
:1018C0004268526842604268D268064B1A6000BFA4
:1018D000704700004C000020380000202C00002041
:1018E000C8000020140000201CB55248006852496E
:1018F000884201D0012000E0002050B900BF5020F4
:1019000080F31188BFF34F8FBFF36F8F00BF00BF0D
:10191000FEE7484800684849491E884201D0012036
:1019200000E0002050B900BF502080F31188BFF3C1
:101930004F8FBFF36F8F00BF00BFFEE73F490846E0
:1019400000780190FF200A46107008460078009049
:101950009DF8000000F0F0009DF80020904201D1B9
:10196000012000E0002050B900BF502080F3118812
:10197000BFF34F8FBFF36F8F00BF00BFFEE79DF82F
:10198000000000F050002E4A107007202D4A106011
:1019900009E02C480068401E2A4A10609DF80000AB
:1019A0004006000E00909DF8000000F080008028A6
:1019B000EFD024480068C0F10700042801D10120BD
:1019C00000E0002050B900BF502080F31188BFF321
:1019D0004F8FBFF36F8F00BF00BFFEE7194800684D
:1019E0000002184A10601046008800F4E0601060A1
:1019F000124A019810700F482030006840F47000BF
:101A00000C49203108600846006840F070400860CA
:101A1000FFF7CAFD00200C490860FEF73BFC0B48AD
:101A2000006840F0404009490860FEF71FFC0020B4
:101A30001CBD000000ED00E071C20F4100E400E0B9
:101A4000680000206C0000206400002034EF00E0FB
:101A500010B500BF502080F31188BFF34F8FBFF344
:101A60006F8F00BF00F018FB18B14FF08050044991
:101A7000086000BF002080F3118800BF10BD000087
:101A800004ED00E02DE9F84305460E4690460DB101
:101A9000012000E0002050B900BF502080F31188E1
:101AA000BFF34F8FBFF36F8F00BF00BFFEE70EB9CC
:101AB000002701E005FB06F707F15000FFF7E4FB04
:101AC00004464CB1A14609F1500943464A46314605
:101AD00028460094FFF7DAF82046BDE8F8830000B6
:101AE00070B505460E462C4654B900BF502080F311
:101AF0001188BFF34F8FBFF36F8F00BF00BFFEE7AA
:101B0000FFF7C0FCD4E90F12206801FB0200A060BF
:101B10000020A06320686060E06B401E226C21689A
:101B200000FB0211E160FF2084F8440084F84500C6
:101B30009EB9206908B9012000E00020A8B904F18D
:101B4000100000F0B1FB80B14FF0805009490860EF
:101B5000BFF34F8FBFF36F8F07E004F11000FFF763
:101B60005BFC04F12400FFF757FCFFF7B5FC0120F4
:101B700070BD000004ED00E02DE9FF4383B0064690
:101B800088461D464FF00009344654B900BF502026
:101B900080F31188BFF34F8FBFF36F8F00BF00BF7B
:101BA000FEE7B8F1000F01D1206C08B9012000E078
:101BB000002050B900BF502080F31188BFF34F8F31
:101BC000BFF36F8F00BF00BFFEE7022D02D1E06BB5
:101BD000012801D1012000E0002050B900BF5020B1
:101BE00080F31188BFF34F8FBFF36F8F00BF00BF2B
:101BF000FEE700F03BFA08B9059808B9012000E0BB
:101C0000002050B900BF502080F31188BFF34F8FE0
:101C1000BFF36F8F00BF00BFFEE700BFFFF732FCCE
:101C2000A06BE16B884201D3022D28D12A464146A0
:101C30002046FEF77CFF0746606A08B9012000E0F5
:101C4000002068B904F1240000F02EFB88B14FF0A9
:101C5000805032490860BFF34F8FBFF36F8F08E0A9
:101C60003FB14FF080502D490860BFF34F8FBFF355
:101C70006F8FFFF731FC012007B0BDE8F0830598B6
:101C800018B9FFF729FC0020F6E7B9F1000F04D1DD
:101C900001A8FFF743FD4FF00109FFF71DFCFFF717
:101CA000D5FDFFF7EFFB94F94400401C10B900206C
:101CB00084F8440094F94500401C10B9002084F8D1
:101CC0004500FFF709FC05A901A800F059F9F0B992
:101CD0002046FFF7F8F8A0B104F110000599FFF7CE
:101CE0002FFD2046FFF791FA00F02AFB002895D13E
:101CF0004FF0805009490860BFF34F8FBFF36F8FDB
:101D00008CE72046FFF781FA00F01AFB86E72046B1
:101D1000FFF77BFA00F014FB0020ADE704ED00E0D4
:101D20002DE9F05F07468A4690461E463C4654B968
:101D300000BF502080F31188BFF34F8FBFF36F8F28
:101D400000BF00BFFEE7BAF1000F01D1206C08B957
:101D5000012000E0002050B900BF502080F311881E
:101D6000BFF34F8FBFF36F8F00BF00BFFEE7022EA0
:101D700002D1E06B012801D1012000E0002050B920
:101D800000BF502080F31188BFF34F8FBFF36F8FD8
:101D900000BF00BFFEE7FFF71BFC00BF5021EFF3C1
:101DA000118081F31188BFF34F8FBFF36F8F00BF96
:101DB0000546A06BE16B884201D3022E23D194F932
:101DC00045B0324651462046FEF7B1FE0BF1010008
:101DD00088B9606A08B9012000E0002080B904F1E8
:101DE000240000F061FA58B1B8F1000F08D00120CA
:101DF000C8F8000004E00BF1010040B284F845008F
:101E00004FF0010901E04FF0000900BF85F3118890
:101E100000BF4846BDE8F09F2DE9F74183B0054675
:101E20000E464FF000082C4654B900BF502080F3F6
:101E30001188BFF34F8FBFF36F8F00BF00BFFEE766
:101E40000EB9206C08B9012000E0002050B900BF95
:101E5000502080F31188BFF34F8FBFF36F8F00BF07
:101E600000BFFEE700F002F908B9059808B90120A3
:101E700000E0002050B900BF502080F31188BFF36C
:101E80004F8FBFF36F8F00BF00BFFEE700BFFFF7AC
:101E9000F9FAA76BF7B131462046FEF733FE781EFC
:101EA000A063206908B9012000E0002060B904F1B6
:101EB000100000F0F9F938B14FF080502F49086058
:101EC000BFF34F8FBFF36F8FFFF706FB012006B004
:101ED000BDE8F081059818B9FFF7FEFA0020F6E793
:101EE000B8F1000F04D101A8FFF718FC4FF001086A
:101EF000FFF7F2FAFFF7AAFCFFF7C4FA94F94400DF
:101F0000401C10B9002084F8440094F94500401C9E
:101F100010B9002084F84500FFF7DEFA05A901A8F2
:101F200000F02EF8F0B92046FEF7C0FFA0B104F192
:101F300024000599FFF704FC2046FFF766F900F03E
:101F4000FFF90028A3D14FF080500C490860BFF37F
:101F50004F8FBFF36F8F9AE72046FFF756F900F0D7
:101F6000EFF994E72046FFF750F900F0E9F9204631
:101F7000FEF79CFF00288AD00020A8E704ED00E0CF
:101F800070B505460C4655B900BF502080F3118846
:101F9000BFF34F8FBFF36F8F00BF00BFFEE754B991
:101FA00000BF502080F31188BFF34F8FBFF36F8FB6
:101FB00000BF00BFFEE7FFF765FA124802686868D5
:101FC000131A2068401C08B9002617E00E4928683B
:101FD0000968884204D06868904201D801260DE063
:101FE0002068984207D92068C01A20602846FFF769
:101FF00095FB002602E0002020600126FFF76CFA26
:10200000304670BD280000203C0000202DE9FF4F25
:1020100085B0804689461746DDE912ABB800FFF768
:1020200033F9064656B15820FFF72EF904460CB195
:10203000266304E03046FFF76DFA00E000247CB12F
:102040000020CDE900ABCDE902403A464946404682
:10205000089BFEF730FE2046FEF7A2FC012501E0BA
:102060004FF0FF35284609B0BDE8F08F05490968F3
:1020700009B9012005E00449096809B9022000E016
:1020800000207047300000204C0000200149086803
:1020900070470000280000202DE9F0414FF00008B3
:1020A00044480068002877D143480068451C4248EE
:1020B000056015BB41480068006808B9012000E0D0
:1020C000002050B900BF502080F31188BFF34F8F1C
:1020D000BFF36F8F00BF00BFFEE73848076838487E
:1020E0000068364908603648076036480068401C7A
:1020F00034490860FEF7DCFF00BF334800688542C2
:102100003CD300BF2D480068006808B9012000E0FA
:10211000002020B14FF0FF302B4908602DE0274808
:102120000068C068C4686668B54202D22648066086
:1021300023E0201DFFF75CF9A06A18B104F1180034
:10214000FFF756F994F82C10012088401F490968C0
:1021500008431E490860E16A01EB81011C4A02EB59
:102160008100211DFFF782F91A49E06A0968C96AEE
:102170008842C7D34FF00108C4E700BF1548006884
:10218000C06A00EB8000124951F82000012801D9F3
:102190004FF0010805E0FFE70F480068401C0E49BA
:1021A00008600E48006808B14FF001084046BDE8DD
:1021B000F08100004C0000202800002018000020C2
:1021C0001C0000203C000020440000202C000020C7
:1021D000C800002014000020340000203800002037
:1021E00070B505462C460026002D55D02B480068BA
:1021F000844201D1012000E0002050B900BF5020EE
:1022000080F31188BFF34F8FBFF36F8F00BF00BF04
:10221000FEE7E06C50B900BF502080F31188BFF397
:102220004F8FBFF36F8F00BF00BFFEE7E06C401E13
:10223000E064A16CE06A88422ED0E06C60BB201D97
:10224000FFF7D6F878B9E06A00EB8000144951F83E
:10225000200040B994F82C100120884011490968E9
:10226000814310480160A06CE062E06AC0F10500A3
:10227000A06194F82C10012088400A49096808439D
:1022800008490860E16A01EB8101054A02EB81001F
:10229000211DFFF7EBF80126304670BD1400002029
:1022A000C80000202C00002070B50646F068C46805
:1022B00054B900BF502080F31188BFF34F8FBFF394
:1022C0006F8F00BF00BFFEE704F11800FFF790F822
:1022D00015480068A8B9201DFFF78AF894F82C105B
:1022E0000120884011490968084310490860E16AE3
:1022F00001EB81010E4A02EB8100211DFFF7B6F8C8
:1023000004E004F118010B48FFF7B0F80A49E06A4D
:102310000968C96A884204D9012501200749086073
:1023200000E00025284670BD4C0000202C00002055
:10233000C8000020540100201400002038000020B4
:1023400070B5002400263648006850B900BF502000
:1023500080F31188BFF34F8FBFF36F8F00BF00BFB3
:10236000FEE7FFF78FF82E480068401E2C490860F2
:102370000846006800284FD12A48006800284BD042
:1023800024E02948C068C46804F11800FFF730F859
:10239000201DFFF72DF894F82C10012088402349C8
:1023A0000968084321490860E16A01EB8101204A7C
:1023B00002EB8100211DFFF759F81E49E06A096808
:1023C000C96A884202D301201B4908601648006888
:1023D00008B9012000E000200028D2D00CB1FEF79F
:1023E00067FE1648056865B100BFFFF755FE10B1DE
:1023F0000120114908606D1E002DF6D100200F4903
:1024000008600D48006838B1012630070C490860A3
:10241000BFF34F8FBFF36F8FFFF75EF8304670BD8D
:102420004C00002024000020540100202C0000203B
:10243000C8000020140000203800002034000020D4
:1024400004ED00E01CB50024FEF706FB0E48006812
:1024500058B10E48022100234FF48272CDE90010DA
:102460000BA10D48FFF7D2FD044654B900BF502020
:1024700080F31188BFF34F8FBFF36F8F00BF00BF92
:10248000FEE720461CBD0000580000205C00002034
:10249000546D722053766300F11100082DE9FE435C
:1024A00004460D4616461F46DDF828804FF0000909
:1024B00054B900BF502080F31188BFF34F8FBFF392
:1024C0006F8F00BF00BFFEE71448006810B300958F
:1024D00001960294062D15DAFFF7C8FD022808D1EF
:1024E0000023424669460D480068FFF745FB8146D8
:1024F00010E000231A46694608480068FFF73CFBD5
:10250000814607E000233A46694604480068FFF721
:1025100007FC81464846BDE8FE83000058000020C5
:102520004FF04070E1EE100A704700004C250008A3
:102530000000002088000000E8010008D425000801
:102540008800002090330100040200080095BA0AB8
:102550000000000000000000010203040607080953
:10256000000000000000000000000000000000006B
:10257000000000000000000000000000000000005B
:10258000000000000000000000000000000000004B
:10259000000000000000000000000000000000003B
:1025A000000000000000000000000000000000002B
:1025B000AAAAAAAA00000000000000000000000073
:1025C000000000000000000000000000000000000B
:0425D0000000000007
:04000005080001AD41
:00000001FF
